:020000040800F2
:1000000000000A20151B0008550400085B040008C6
:1000100061040008670400086D0400080000000087
:100020000000000000000000000000007304000851
:1000300081040008000000008F0400089D040008EF
:10004000651B0008651B0008651B0008651B000890
:10005000651B0008651B0008651B0008651B000880
:10006000651B0008651B0008651B0008651B000870
:10007000651B0008651B0008651B0008651B000860
:10008000651B0008651B0008651B0008651B000850
:10009000651B0008651B0008651B0008651B000840
:1000A000651B0008651B0008651B0008651B000830
:1000B000651B0008651B0008651B0008651B000820
:1000C000651B0008651B0008651B0008651B000810
:1000D000651B0008651B0008651B0008651B000800
:1000E000A9040008651B0008651B0008651B0008C3
:1000F000651B0008651B0008651B00080000000068
:10010000651B0008651B0008651B0008651B0008CF
:10011000651B0008651B0008651B0008651B0008BF
:10012000651B0008651B0008651B0008651B0008AF
:10013000651B0008651B0008651B0008651B00089F
:10014000651B0008651B0008651B0008651B00088F
:10015000651B0008651B0008651B0008651B00087F
:10016000651B0008651B0008651B0008651B00086F
:10017000651B0008651B000800000000000000006F
:10018000651B0008651B0008651B0008651B00084F
:10019000651B0008651B000800000000000000004F
:1001A0000000000000000000651B0008651B00083F
:0C01B000651B0008651B0008651B0008AB
:1001BC0010B5054C237833B9044B13B10448AFF395
:1001CC0000800123237010BD0C00002000000000F3
:1001DC00C01B000808B5034B1BB103490348AFF320
:1001EC00008008BD0000000010000020C01B0008AB
:1001FC0080B500AF00F08CF900F02EF800F07EF81E
:10020C00134B1B78002B07D18021124800F0E8FC1F
:10021C00642000F0F1F9F3E70D4B1B78012B08D1AA
:10022C00002280210B4800F0C3FC642000F0E4F9AC
:10023C00E6E7074B1B78022BE2D10122802105480F
:10024C0000F0B6FC4FF47A7000F0D6F9D8E700BF96
:10025C00280000200008004880B596B000AF07F1D8
:10026C00140344220021184601F09CFC3B4600225A
:10027C001A605A609A60DA601A61002000F002FD80
:10028C000346002B01D000F0B7F810237B6101234B
:10029C00FB6200233B6360237B630223FB6301232C
:1002AC003B6401237B643C23BB640223FB64022379
:1002BC003B6502237B6507F11403184600F086FDAD
:1002CC000346002B01D000F097F80F233B6003236B
:1002DC007B600023BB600023FB6000233B613B463B
:1002EC000521184601F098F90346002B01D000F0C7
:1002FC0083F800BF5837BD4680BD000080B588B07C
:10030C0000AF07F10C0300221A605A609A60DA60A1
:10031C001A61224A214BDB6C43F00403D3641F4B5C
:10032C00DB6C03F00403BB60BB681C4A1B4BDB6C2F
:10033C0043F00103D364194BDB6C03F001037B60C6
:10034C007B6800228021164800F032FC4FF40053E9
:10035C00FB60144B3B6100237B6107F10C031946D6
:10036C000F4800F07BFA8023FB6001233B610023E4
:10037C007B610223BB6107F10C031946084800F0AE
:10038C006DFA00220121282000F031FA282000F01B
:10039C004AFA00BF2037BD4680BD00BF00100240A6
:1003AC00000800480000111080B582B000AF034671
:1003BC00FB80FB88B3F5005F15D10D4B1B78013327
:1003CC00DAB20B4B1A700A4B1B78022B02D9084B72
:1003DC0000221A7000BF4FF40051064800F0D0FB09
:1003EC000346002BF7D100BF0837BD4680BD00BFC8
:1003FC00280000200008004880B400AF72B6FEE769
:10040C0080B483B000AF0F4A0E4B1B6E43F0010358
:10041C0013660C4B1B6E03F001037B607B68094A6F
:10042C00084B9B6D43F080539365064B9B6D03F01B
:10043C0080533B603B6800BF0C37BD465DF8047BC6
:10044C00704700BF0010024080B400AFFEE780B4DC
:10045C0000AFFEE780B400AFFEE780B400AFFEE76C
:10046C0080B400AFFEE780B400AF00BFBD465DF8BE
:10047C00047B704780B400AF00BFBD465DF8047BC1
:10048C00704780B400AF00BFBD465DF8047B704779
:10049C0080B500AF00F090F800BF80BD80B500AF14
:1004AC004FF4005000F0B6FB00BF80BD80B400AF2D
:1004BC00154A154BD3F8883043F47003C2F88830D2
:1004CC00124A124B1B6843F0010313600F4B0022BE
:1004DC009A600E4A0D4B1B6823F0A85323F410238B
:1004EC0013600A4B4FF48052DA60084A074B1B68C2
:1004FC0023F480231360054B00229A6100BFBD4694
:10050C005DF8047B704700BF00ED00E00010024076
:10051C0080B582B000AF0023FB71032000F05CF9C2
:10052C000F2000F00DF80346002B02D00123FB71C5
:10053C0001E0FFF765FFFB7918460837BD4680BD23
:10054C0080B584B000AF78600023FB73174B1B7829
:10055C00002B23D0164B1A68144B1B7819464FF4FA
:10056C007A73B3FBF1F3B2FBF3F3184600F069F9BD
:10057C000346002B0FD17B680F2B09D8002279681A
:10058C004FF0FF3000F033F90A4A7B68136007E044
:10059C000123FB7304E00123FB7301E00123FB73D4
:1005AC00FB7B18461037BD4680BD00BF08000020FD
:1005BC00000000200400002080B400AF064B1B7824
:1005CC001A46064B1B681344044A136000BFBD4611
:1005DC005DF8047B704700BF080000202C00002051
:1005EC0080B400AF034B1B681846BD465DF8047B16
:1005FC00704700BF2C00002080B584B000AF78603D
:10060C00FFF7EEFFB8607B68FB60FB68B3F1FF3F60
:10061C0005D0094B1B781A46FB681344FB6000BFDE
:10062C00FFF7DEFF0246BB68D21AFB689A42F7D38B
:10063C0000BF1037BD4680BD0800002080B485B0D7
:10064C0000AF78607B6803F00703FB600C4BDB6842
:10065C00BB60BA684FF6FF031340BB60FB681A021D
:10066C00BB68134343F0BF6343F40033BB60044ADD
:10067C00BB68D36000BF1437BD465DF8047B704780
:10068C0000ED00E080B400AF044BDB681B0A03F004
:10069C0007031846BD465DF8047B704700ED00E08B
:1006AC0080B483B000AF0346FB7197F90730002B81
:1006BC000BDB094997F907305B09FA7902F01F0245
:1006CC00012000FA02F241F8232000BF0C37BD468E
:1006DC005DF8047B704700BF00E100E080B483B09C
:1006EC0000AF03463960FB7197F90730002B0ADB2A
:1006FC000D4997F907303A68D2B21201D2B20B44C5
:10070C0083F800230AE00949FB7903F00F03043B4B
:10071C003A68D2B21201D2B20B441A7600BF0C372F
:10072C00BD465DF8047B704700E100E000ED00E0A1
:10073C0080B489B000AFF860B9607A60FB6803F0F0
:10074C000703FB61FB69C3F10703042B28BF0423D8
:10075C00BB61FB690433062B02D9FB69033B00E048
:10076C0000237B610122BB6902FA03F35A1EBB68AA
:10077C001A407B699A4001217B6901FA03F3591EE7
:10078C007B680B40134318462437BD465DF8047B49
:10079C007047000080B582B000AF78607B68013B89
:1007AC00B3F1807F01D301230FE00A4A7B68013B40
:1007BC0053600F214FF0FF30FFF790FF054B0022E5
:1007CC009A60044B07221A60002318460837BD466E
:1007DC0080BD00BF10E000E080B582B000AF786053
:1007EC007868FFF72BFF00BF0837BD4680BD80B58A
:1007FC0086B000AF0346B9607A60FB7300237B615F
:10080C00FFF740FF78617A68B9687869FFF790FF65
:10081C00024697F90F3011461846FFF75FFF00BFED
:10082C001837BD4680BD80B582B000AF0346FB7162
:10083C0097F907301846FFF733FF00BF0837BD465E
:10084C0080BD80B582B000AF78607868FFF7A2FFFA
:10085C00034618460837BD4680BD000080B487B0FB
:10086C0000AF7860396000237B6166E13B681A68F1
:10087C0001217B6901FA03F31340FB60FB68002B39
:10088C0000F058813B685B68012B0BD03B685B68C0
:10089C00022B07D03B685B68112B03D03B685B686D
:1008AC00122B30D17B689B683B617B695B00032218
:1008BC0002FA03F3DB433A6913403B613B68DA68A5
:1008CC007B695B0002FA03F33A6913433B617B6873
:1008DC003A699A607B685B683B6101227B6902FA2A
:1008EC0003F3DB433A6913403B613B685B681B09CC
:1008FC0003F001027B6902FA03F33A6913433B618B
:10090C007B683A695A607B68DB683B617B695B009A
:10091C00032202FA03F3DB433A6913403B613B6861
:10092C009A687B695B0002FA03F33A6913433B61F3
:10093C007B683A69DA603B685B68022B03D03B68E2
:10094C005B68122B23D17B69DA087B68083253F879
:10095C0022303B617B6903F007039B000F2202FAF4
:10096C0003F3DB433A6913403B613B681A697B69CB
:10097C0003F007039B0002FA03F33A6913433B614C
:10098C007B69DA087B680832396943F822107B6886
:10099C001B683B617B695B00032202FA03F3DB43B8
:1009AC003A6913403B613B685B6803F003027B6967
:1009BC005B0002FA03F33A6913433B617B683A69C3
:1009CC001A603B685B6803F08053002B00F0B28028
:1009DC00614A614B1B6E43F0010313665E4B1B6E49
:1009EC0003F00103BB60BB685C4A7B699B08023364
:1009FC0052F823303B617B6903F003039B000F2209
:100A0C0002FA03F3DB433A6913403B617B68B3F1B1
:100A1C00904F2BD07B68524A934225D07B68514A29
:100A2C0093421FD07B68504A934219D07B684F4A3F
:100A3C00934213D07B684E4A93420DD07B684D4A4B
:100A4C00934207D07B684C4A934201D107230EE0B6
:100A5C0008230CE006230AE0052308E0042306E043
:100A6C00032304E0022302E0012300E000237A695F
:100A7C0002F00302920093403A6913433B613749F9
:100A8C007B699B0802333A6941F823203B4B1B6876
:100A9C003B61FB68DB433A6913403B613B685B6835
:100AAC0003F48033002B03D03A69FB6813433B619A
:100ABC00324A3B691360314B5B683B61FB68DB433B
:100ACC003A6913403B613B685B6803F40033002BCD
:100ADC0003D03A69FB6813433B61284A3B69536076
:100AEC00264B9B683B61FB68DB433A6913403B61D7
:100AFC003B685B6803F48013002B03D03A69FB68F6
:100B0C0013433B611D4A3B6993601C4BDB683B61A3
:100B1C00FB68DB433A6913403B613B685B6803F459
:100B2C000013002B03D03A69FB6813433B61134A53
:100B3C003B69D3607B6901337B613B681A687B69D5
:100B4C0022FA03F3002B7FF491AE00BF1C37BD4695
:100B5C005DF8047B704700BF0010024000000140AC
:100B6C000004004800080048000C00480010004831
:100B7C000014004800180048001C00480004014004
:100B8C0080B485B000AF78600B467B807B681A69B7
:100B9C007B881340002B02D00123FB7301E0002360
:100BAC00FB73FB7B18461437BD465DF8047B70471E
:100BBC0080B483B000AF78600B467B8013467B70AB
:100BCC007B78002B03D07A887B689A6102E07A8864
:100BDC007B689A6200BF0C37BD465DF8047B70479A
:100BEC0080B485B000AF78600B467B807B685B6916
:100BFC00FB607A88FB6813401A04FB68D9437B8836
:100C0C000B401A437B689A6100BF1437BD465DF8F0
:100C1C00047B704780B582B000AF0346FB80084B65
:100C2C005A69FB881340002B06D0054AFB88536198
:100C3C00FB881846FFF7B8FB00BF0837BD4680BDE0
:100C4C000004014080B400AF0D4B1B6803F4C0637B
:100C5C00B3F5806F02D14FF480630BE0084BD3F8EF
:100C6C00803003F48073B3F5807F02D14FF40073AE
:100C7C0000E000231846BD465DF8047B704700BFBA
:100C8C000070004080B485B000AF78607B68002BAA
:100C9C0041D14B4B1B6803F4C063B3F5806F31D16A
:100CAC00474A474BD3F8803023F48073C2F8803026
:100CBC00434A434B1B6823F4C06343F40073136033
:100CCC00404B1B68322202FB03F33F4AA2FB032377
:100CDC009B0C0133FB6002E0FB68013BFB60384B73
:100CEC005B6903F48063B3F5806F02D1FB68002B62
:100CFC00F2D1334B5B6903F48063B3F5806F58D149
:100D0C00032357E02E4A2E4BD3F8803023F4807304
:100D1C00C2F880304DE07B68B3F5007F41D1284BA1
:100D2C001B6803F4C063B3F5806F31D1244A244BA4
:100D3C00D3F8803043F48073C2F88030204A204BC3
:100D4C001B6823F4C06343F4007313601D4B1B68D2
:100D5C00322202FB03F31C4AA2FB03239B0C01333C
:100D6C00FB6002E0FB68013BFB60154B5B6903F425
:100D7C008063B3F5806F02D1FB68002BF2D1104B6E
:100D8C005B6903F48063B3F5806F12D1032311E028
:100D9C000B4A0B4BD3F8803043F48073C2F880308D
:100DAC0007E0074A064B1B6823F4C06343F48063D7
:100DBC001360002318461437BD465DF8047B70475A
:100DCC00007000400000002083DE1B4380B588B01B
:100DDC0000AF78607B68002B02D1012300F016BCB9
:100DEC00A04B9B6803F00C03BB619E4BDB6803F0CC
:100DFC0003037B617B681B6803F01003002B00F07E
:100E0C00E480BB69002B07D0BB690C2B40F08B80B6
:100E1C007B69012B40F08780924B1B6803F0020327
:100E2C00002B05D07B689B69002B01D10123EDE3DE
:100E3C007B681A6A8B4B1B6803F00803002B04D0E9
:100E4C00884B1B6803F0F00305E0864BD3F8943015
:100E5C001B0903F0F0039A4223D97B681B6A1846DE
:100E6C0000F090FD0346002B01D00123CEE37D4A18
:100E7C007C4B1B6843F0080313607A49794B1B6861
:100E8C0023F0F0027B681B6A13430B607549754BAA
:100E9C005B6823F47F427B68DB691B0213434B6066
:100EAC0025E0704A6F4B1B6843F0080313606D49D3
:100EBC006C4B1B6823F0F0027B681B6A13430B60BE
:100ECC006849684B5B6823F47F427B68DB691B02D3
:100EDC0013434B60BB69002B09D17B681B6A184616
:100EEC0000F050FD0346002B01D001238EE300F0EF
:100EFC00BFFC01465B4B9B681B0903F00F035A4A6E
:100F0C00D35C03F01F0321FA03F3584A1360584BC8
:100F1C001B681846FFF714FB0346FB73FB7B002B87
:100F2C0052D0FB7B72E37B689B69002B32D04D4A1D
:100F3C004C4B1B6843F001031360FFF751FB386106
:100F4C0008E0FFF74DFB02463B69D31A022B01D98F
:100F5C0003235BE3434B1B6803F00203002BF0D02D
:100F6C00404A404B1B6843F0080313603D493D4B1E
:100F7C001B6823F0F0027B681B6A13430B60394932
:100F8C00384B5B6823F47F427B68DB691B0213439D
:100F9C004B601AE0334A334B1B6823F00103136098
:100FAC00FFF71EFB386108E0FFF71AFB02463B69AE
:100FBC00D31A022B01D9032328E32A4B1B6803F015
:100FCC000203002BF0D100E000BF7B681B6803F02C
:100FDC000103002B73D0BB69082B05D0BB690C2B0C
:100FEC000ED17B69032B0BD11E4B1B6803F4003312
:100FFC00002B63D07B685B68002B5FD1012305E37A
:10100C007B685B68B3F5803F06D1164A154B1B68AD
:10101C0043F4803313601DE07B685B68B3F5A02F4D
:10102C000CD1104A0F4B1B6843F4802313600D4AFC
:10103C000C4B1B6843F4803313600BE0094A094BDB
:10104C001B6823F480331360064A064B1B6823F499
:10105C00802313607B685B68002B1BD0FFF7C0FA02
:10106C00386110E000100240D81B0008000000207E
:10107C0004000020FFF7B4FA02463B69D31A642B34
:10108C0001D90323C2E2AF4B1B6803F40033002BDE
:10109C00F0D014E0FFF7A4FA386108E0FFF7A0FAEB
:1010AC0002463B69D31A642B01D90323AEE2A54B4C
:1010BC001B6803F40033002BF0D100E000BF7B6809
:1010CC001B6803F00203002B60D0BB69042B05D016
:1010DC00BB690C2B19D17B69022B16D1994B1B6860
:1010EC0003F48063002B05D07B68DB68002B01D1F7
:1010FC0001238BE29349934B5B6823F0FE427B68A0
:10110C001B691B0613434B6040E07B68DB68002BBC
:10111C0023D08C4A8B4B1B6843F480731360FFF70E
:10112C005FFA386108E0FFF75BFA02463B69D31AB5
:10113C00022B01D9032369E2824B1B6803F4806301
:10114C00002BF0D07F497F4B5B6823F0FE427B681D
:10115C001B691B0613434B6018E07A4A794B1B68DA
:10116C0023F480731360FFF73BFA386108E0FFF754
:10117C0037FA02463B69D31A022B01D9032345E205
:10118C00704B1B6803F48063002BF0D17B681B68E9
:10119C0003F00803002B3CD07B685B69002B1CD050
:1011AC00684A684BD3F8943043F00103C2F894308A
:1011BC00FFF716FA386108E0FFF712FA02463B69AE
:1011CC00D31A022B01D9032320E25E4BD3F89430BF
:1011DC0003F00203002BEFD01BE05A4A594BD3F813
:1011EC00943023F00103C2F89430FFF7F9F9386119
:1011FC0008E0FFF7F5F902463B69D31A022B01D937
:10120C00032303E24F4BD3F8943003F00203002B7B
:10121C00EFD17B681B6803F00403002B00F0A68061
:10122C000023FB77474B9B6D03F08053002B0DD1B4
:10123C00444A444B9B6D43F080539365414B9B6DEB
:10124C0003F08053BB60BB680123FB773E4B1B68EC
:10125C0003F48073002B18D13B4A3B4B1B6843F4BF
:10126C0080731360FFF7BCF9386108E0FFF7B8F939
:10127C0002463B69D31A022B01D90323C6E1324B38
:10128C001B6803F48073002BF0D07B689B68012BE8
:10129C0008D12C4A2B4BD3F8903043F00103C2F801
:1012AC00903024E07B689B68052B10D1254A254B98
:1012BC00D3F8903043F00403C2F89030214A214B0C
:1012CC00D3F8903043F00103C2F890300FE01D4A80
:1012DC001C4BD3F8903023F00103C2F89030194A1C
:1012EC00184BD3F8903023F00403C2F890307B688D
:1012FC009B68002B16D0FFF773F938610AE0FFF7F3
:10130C006FF902463B69D31A41F28832934201D9F4
:10131C0003237BE10B4BD3F8903003F00203002B3B
:10132C00EDD01AE0FFF75CF938610FE0FFF758F9E0
:10133C0002463B69D31A41F28832934206D9032301
:10134C0064E100BF0010024000700040A84BD3F8CD
:10135C00903003F00203002BE8D1FB7F012B05D169
:10136C00A34AA34B9B6D23F0805393657B681B684A
:10137C0003F02003002B3CD07B685B6A002B1CD055
:10138C009B4A9B4BD3F8983043F00103C2F898303A
:10139C00FFF726F9386108E0FFF722F902463B69AE
:1013AC00D31A022B01D9032330E1914BD3F8983097
:1013BC0003F00203002BEFD01BE08D4A8C4BD3F8CB
:1013CC00983023F00103C2F89830FFF709F938611F
:1013DC0008E0FFF705F902463B69D31A022B01D945
:1013EC00032313E1824BD3F8983003F00203002B54
:1013FC00EFD17B689B6A002B00F007817B689B6AAE
:10140C00022B40F0CB807A4BDB687B617B6903F06D
:10141C0003027B68DB6A9A422CD17B6903F0F002F1
:10142C007B681B6B013B1B019A4223D17B6903F444
:10143C00FE427B685B6B1B029A421BD17B6903F0FB
:10144C0078427B689B6BDB069A4213D17B6903F471
:10145C00C0027B68DB6B5B08013B5B059A4209D1E0
:10146C007B6903F0C0627B681B6C5B08013B5B060D
:10147C009A426DD0BB690C2B68D05D4B1B6803F096
:10148C008063002B05D15A4B1B6803F08053002B53
:10149C0001D00123BAE0564A554B1B6823F08073E8
:1014AC001360FFF79DF8386108E0FFF799F80246E2
:1014BC003B69D31A022B01D90323A7E04C4B1B68C1
:1014CC0003F00073002BF0D14948494BDA68494BC3
:1014DC0013407A68D16A7A68126B013A120111438F
:1014EC007A68526B120211437A68D26B5208013A35
:1014FC00520511437A68126C5208013A5206114394
:10150C007A68926BD2060A431343C360384A384B4D
:10151C001B6843F080731360354A354BDB6843F02E
:10152C008073D360FFF75CF8386108E0FFF758F878
:10153C0002463B69D31A022B01D9032366E02C4BDC
:10154C001B6803F00073002BF0D05EE001235DE01C
:10155C00274B1B6803F00073002B56D1244A244BF5
:10156C001B6843F080731360214A214BDB6843F006
:10157C008073D360FFF734F8386108E0FFF730F878
:10158C0002463B69D31A022B01D903233EE0184BC8
:10159C001B6803F00073002BF0D036E0BB690C2BFA
:1015AC0031D0134A124B1B6823F080731360104B1D
:1015BC001B6803F02053002B05D10D4A0C4BDB6844
:1015CC0023F00303D3600A4A094BDB6823F08873CA
:1015DC0023F48033D360FFF703F838610CE0FEF797
:1015EC00FFFF02463B69D31A022B05D903230DE0FA
:1015FC00001002400C809D01064B1B6803F0007329
:10160C00002BECD101E0012300E000231846203729
:10161C00BD4680BD0010024080B586B000AF78603A
:10162C00396000237B617B68002B01D101230FE122
:10163C00894B1B6803F00F023B689A4210D2864913
:10164C00854B1B6823F00F023B6813430B60824BE6
:10165C001B6803F00F023B689A4201D00123F7E0AC
:10166C007B681B6803F00103002B00F089807B680A
:10167C005B68032B33D1794B1B6803F00073002B91
:10168C0001D10123E4E000F0D7F90246744B9A42F1
:10169C0055D9724B9B6803F0F003002B0AD16F4AAB
:1016AC006E4B9B6823F0F00343F080039360802320
:1016BC007B6144E07B681B6803F00203002B3ED087
:1016CC007B689B68002B3AD1644A644B9B6823F07F
:1016DC00F00343F08003936080237B612FE07B68F1
:1016EC005B68022B07D15D4B1B6803F40033002BA6
:1016FC0015D10123ACE07B685B68002B07D1574BFD
:10170C001B6803F00203002B09D10123A0E0534B0B
:10171C001B6803F48063002B01D1012398E000F0D7
:10172C00A7F802464E4B9A4209D94C4A4B4B9B6840
:10173C0023F0F00343F08003936080237B614749DF
:10174C00464B9B6823F003027B685B6813438B60FA
:10175C00FEF746FF38610AE0FEF742FF02463B699E
:10176C00D31A41F28832934201D9032370E03B4BE8
:10177C009B6803F00C027B685B689B009A42EBD180
:10178C007B681B6803F00203002B09D03349334BF1
:10179C009B6823F0F0027B689B6813438B6008E026
:1017AC007B69802B05D12D4A2C4B9B6823F0F003D1
:1017BC009360294B1B6803F00F023B689A4210D9C7
:1017CC002549254B1B6823F00F023B6813430B6024
:1017DC00214B1B6803F00F023B689A4201D0012396
:1017EC0036E07B681B6803F00403002B08D01B4910
:1017FC001A4B9B6823F4E0627B68DB6813438B60B5
:10180C007B681B6803F00803002B09D01349134BAA
:10181C009B6823F460527B681B69DB0013438B606D
:10182C0000F026F801460D4B9B681B0903F00F03D3
:10183C000C4AD35C03F01F0321FA03F30A4A13602A
:10184C000A4B1B681846FEF77BFE0346FB73FB7BBB
:10185C0018461837BD4680BD0020024000100240DB
:10186C0000B4C404D81B00080000002004000020B1
:10187C0080B489B000AF0023FB610023BB613D4BFA
:10188C009B6803F00C033B613A4BDB6803F00303EA
:10189C00FB603B69002B05D03B690C2B21D1FB680D
:1018AC00012B1ED1334B1B6803F00803002B07D10F
:1018BC00304BD3F894301B0A03F00F03FB6105E0A7
:1018CC002C4B1B681B0903F00F03FB612A4AFB69B5
:1018DC0052F82330FB613B69002B0DD1FB69BB61D6
:1018EC000AE03B69042B02D1244BBB6104E03B6949
:1018FC00082B01D1224BBB613B690C2B33D11D4B07
:10190C00DB6803F00303BB60BB68022B02D0032B24
:10191C0003D005E0194B7B6105E0194B7B6102E0BC
:10192C00FB697B6100BF134BDB681B0903F00F03E2
:10193C0001337B600F4BDB681B0A03F07F037A6972
:10194C0002FB03F27B68B2FBF3F37B61094BDB68B0
:10195C005B0E03F0030301335B003B607A693B6869
:10196C00B2FBF3F3BB61BB6918462437BD465DF887
:10197C00047B704700100240E81B00080024F400B0
:10198C0000127A0080B586B000AF786000233B610E
:10199C00274B9B6D03F08053002B03D0FFF752F9BC
:1019AC00786114E0224A224B9B6D43F0805393657F
:1019BC001F4B9B6D03F08053FB60FB68FFF742F9F4
:1019CC0078611B4A1A4B9B6D23F0805393657B699E
:1019DC00B3F5007F0BD17B68802B13D97B68A02BD0
:1019EC0002D902233B610DE001233B610AE07B68D5
:1019FC007F2B02D902233B6104E07B68702B01D161
:101A0C0001233B610B490B4B1B6823F00F023B6915
:101A1C0013430B60074B1B6803F00F023B699A42A0
:101A2C0001D0012300E0002318461837BD4680BDC5
:101A3C00001002400020024080B487B000AF0023A9
:101A4C007B612D4BDB6803F00303012B18D12A4B70
:101A5C001B6803F00803002B07D1274BD3F89430F5
:101A6C001B0A03F00F037B6105E0234B1B681B096A
:101A7C0003F00F037B61214A7B6952F823307B61B1
:101A8C001D4BDB6803F00303FB60FB68022B02D0E9
:101A9C00032B03D005E01A4B3B6105E0194B3B616E
:101AAC0002E07B693B6100BF134BDB681B0903F051
:101ABC000F030133BB60104BDB681B0A03F07F0381
:101ACC003A6902FB03F2BB68B2FBF3F33B610A4BCE
:101ADC00DB685B0E03F0030301335B007B603A6948
:101AEC007B68B2FBF3F33B603B6818461C37BD4682
:101AFC005DF8047B704700BF00100240E81B000833
:101B0C000024F40000127A00DFF834D0FEF7CEFC8B
:101B1C00002103E00B4B5B58435004310A480B4B3C
:101B2C0042189A42F6D30A4A02E0002342F8043BD8
:101B3C00084B9A42F9D300F011F8FEF759FBFEE777
:101B4C0000000A20201C0008000000200C000020CF
:101B5C000C00002030000020FEE7000070B50D4E98
:101B6C000D4CA41BA4100025A54209D10B4E0C4C06
:101B7C0000F020F8A41BA4100025A54205D170BDCF
:101B8C0056F8253098470135EEE756F8253098473A
:101B9C000135F2E7181C0008181C0008181C000876
:101BAC001C1C000802440346934200D1704703F802
:101BBC00011BF9E7F8B500BFF8BC08BC9E4670479E
:0C1BCC00F8B500BFF8BC08BC9E4670478E
:101BD80000000000000000000102030406070809D5
:101BE800A0860100400D0300801A060000350C0095
:101BF80040420F0080841E0000093D0000127A0058
:101C08000024F40000366E010048E801006CDC0294
:041C1800E1010008DE
:041C1C00BD010008FE
:0C1C200000093D00100000000100000061
:0400000508001B15BF
:00000001FF
